:020000041000EA
:10100000200900201910001045140010471400108A
:1010100000040000000000000248854602488047A6
:1010200012E0000020090020D1100010002A0AD090
:10103000042A00D20422920803680B60013A02D00D
:1010400004300431F8E7704711481249124AFFF79B
:10105000EDFF12481249134AFFF7E8FF12481349FF
:10106000134AFFF7E3FF13481349002906D0890804
:1010700000220260013901D00430FAE70F488546AA
:101080000F4880470F488047002000210E4A9746AE
:10109000E0500010900B00200C000000EC500010FD
:1010A0009C0B002000000000D04F00100C0000201E
:1010B000100100002009002070020000200900201B
:1010C00075140010CD1000100D110010C0467047AF
:1010D000C046704780B582B000AF021CFB1D1A707D
:1010E000084B084A5169084A0A405A61054B054AAB
:1010F0005169FA1D127812020A435A61BD4602B0C4
:1011000080BDC04600000440FF07FFFF80B500AF70
:1011100001F038FF0F4B5B680E4A52780121081C22
:101120009040021C5A608020FFF7D4FF00E0C046C8
:10113000094B1B78DBB2012BF9D172B6074A842325
:101140005B00101C191C00F047F962B6024B00222C
:101150001A70ECE7404F00102809002044090020D5
:1011600080B500AFBD4680BD80B500AF094B5B6860
:10117000084A52780849081C9040021C5A60074BE4
:101180005B68064A52780449081C9040021C5A6069
:10119000BD4680BD404F001001000100484F0010C7
:1011A00080B582B000AF204B181C102101F030F840
:1011B000031C022B35D11C4B181C102101F06EF8BA
:1011C000194B1A688E235B00D258FB1D1A70FB1D49
:1011D0001B78012B06D1154B00221A60144B154ABF
:1011E0001A601EE0114B1A6884235B009A420ED0ED
:1011F0000F4B1B68FA1D12781A700D4B1B685A1C96
:101200000B4B1A60094B1B685A1C084B1A60074BA2
:101210001A68094B9A4202D1084B01221A70FFF753
:10122000A3FFBD4602B080BD044F0010240900207A
:10123000200900204409002007010000280900209F
:1012400080B500AF074B181C132100F0E1FF031C11
:10125000022B04D1034B181C132101F01FF8BD46CB
:1012600080BDC046044F001080B582B000AF021CA4
:10127000FB1D1A70FB1D1B78082B00D994E09A0007
:101280004B4BD3181B689F464A4B181C3F2100F05C
:10129000A3F8484B181C3F2100F09EF8454B181C42
:1012A0003F2100F099F8434B181C3F2100F094F8BF
:1012B000404B181C3F2100F08FF876E03E4B181C85
:1012C0003F2100F089F83C4B181C3F2100F084F8C6
:1012D000394B181C3F2100F07FF866E0374B181C93
:1012E0003F2100F079F8354B181C3F2100F074F8CD
:1012F000324B181C3F2100F06FF856E0304B181CA1
:101300003F2100F069F82E4B181C3F2100F064F8D3
:101310002B4B181C3F2100F05FF846E0294B181CAE
:101320003F2100F059F8274B181C3F2100F054F8DA
:10133000244B181C3F2100F04FF836E0224B181CBC
:101340003F2100F049F8204B181C3F2100F044F8E1
:101350001D4B181C3F2100F03FF826E01B4B181CCA
:101360003F2100F039F8194B181C3F2100F034F8E8
:10137000164B181C3F2100F02FF816E0144B181CD8
:101380003F2100F029F8124B181C3F2100F024F8EF
:101390000F4B181C3F2100F01FF806E00D4B181CE6
:1013A0003F2100F019F800E0C046BD4602B080BD04
:1013B000E04E0010A04C0010E04C0010204D00103A
:1013C000604D0010A04D0010A04E0010204E0010E7
:1013D000604E0010E04D0010B0B588B000AF7860EE
:1013E00039602023BB6180239B037B61144B3B61ED
:1013F000134BFB6017E07B681B78BB607B68013395
:101400007B60BB683A69F9687869BD69FC691B064D
:1014100008245B001560C04600D20860013C0860EB
:1014200000D0F6E7FC613B685A1E9341DBB23A6894
:10143000013A3A60002BDED1BD4608B0B0BDC046CF
:1014400004000440FEE7FEE7FEE7FEE7FEE7FEE7F6
:10145000FEE7FEE7FEE7FEE7FEE7FEE7FEE7FEE764
:10146000FEE7FEE7FEE7FEE7FEE7FEE7FEE7FEE754
:10147000FEE7FEE780B500AF00F002F8BD4680BD94
:1014800080B582B000AF114B1A68FF231B021340D6
:101490001B0A7B600D4B1A68FF2313403B607B687F
:1014A000002B0CD07B681A023B68D3180848191C23
:1014B00001F04EFF031C5A00064B1A6002E0054B78
:1014C000054A1A60BD4602B080BDC0460003014017
:1014D000000024F44C0A00200048E80180B584B0E4
:1014E00000AFF860B9607A6001235B42181CBD460A
:1014F00004B080BD80B584B000AFF860B9607A6098
:1015000001235B42181CBD4604B080BD80B584B089
:1015100000AFF860B9607A600023181CBD4604B0C3
:1015200080BDC04680B584B000AFF860B9607A6015
:1015300001235B42181CBD4604B080BD80B500AFDE
:1015400001235B42181CBD4680BDC04680B582B0F9
:1015500000AF786039603B68002B02D001235B420A
:1015600001E002235B42181CBD4602B080BDC046AC
:1015700080B582B000AF786039607A683B689A4283
:1015800002D101235B4201E002235B42181CBD46ED
:1015900002B080BD80B582B000AF786001235B42AD
:1015A000181CBD4602B080BD80B586B000AF786023
:1015B000144B7B61144B1B68002B08D1124B134A50
:1015C0001A60114B1A687B69D218114B1A600E4BC6
:1015D0001B683B610C4B1B681A1C7B68D3180733D4
:1015E00007229343FB600A4B1B68FA689A4201D3B7
:1015F000002303E0044BFA681A603B69181CBD46DF
:1016000006B080BD6034000030090020A00B00202F
:101610003409002080B582B000AF786001235B42BE
:10162000181CBD4602B080BD80B582B000AF7860A6
:1016300001235B42181CBD4602B080BD80B582B05C
:1016400000AF7860396001235B42181CBD4602B0D0
:1016500080BDC04680B500AF01235B42181CBD466B
:1016600080BDC04680B500AF01235B42181CBD465B
:1016700080BDC04680B582B000AF7860FEE7C0464E
:1016800080B500AFBD4680BD80B582B000AF786048
:1016900001235B42181CBD4602B080BD80B584B0FA
:1016A00000AF78607B681B68FB60FB681B6C0222E4
:1016B000191C91430A1CFB681A64FB68DB6803224F
:1016C0001A43FB68DA60FB681B69802212021A4326
:1016D000FB681A61FB681A697B681B8D9B059B0D73
:1016E0001A43FB681A61FB685A6979683023CB5C3E
:1016F0001902C0239B0019407B689B8D9802F82338
:10170000DB01034019437B685B8D18044F4B03409A
:101710000B431A43FB685A61FB685B6B81225200E2
:101720001A43FB685A63FB685A6B7B689B8B1904EE
:10173000FC239B0319407B689B8B1806F0231B0539
:1017400003400B431A43FB685A63FB689B6BA02260
:10175000D2001A43FB689A63FB68DA6B7B685B7D97
:101760005900022319407B68DB8D1802F8235B01C6
:1017700003400B43134301221A43FB68DA637A6880
:101780002423D35C002B05D0FB68DB6B20221A439B
:10179000FB68DA637A682523D35C002B05D0FB68ED
:1017A000DB6B40221A43FB68DA637A682623D35C3A
:1017B000002B05D0FB68DB6B80221A43FB68DA63E1
:1017C0007B689B7F002B11D0FA6884235B00D25882
:1017D00079682023CB5C1902FC239B010B40111C70
:1017E0001943FA6884235B00D15006E0FB689B6CC8
:1017F000802292011A43FB689A647B68DB7F002B8E
:1018000013D0FA6886235B00D25879682123CB5C19
:101810001902FC239B010B40134380225205111C2B
:101820001943FA6886235B00D150FB681A6C7B6809
:101830009B7D1902C0239B000B40134302221A43D5
:10184000FB681A64BD4604B080BDC0460000FF03BB
:1018500090B585B000AF78607B685B687A68526845
:1018600051687A68127A0120041C9440221C0A43B1
:101870005A607B681B7AFB60FB68032B0ED87B6881
:101880005B687A6852681169FA68D20003321820DE
:10189000041C9440221C0A431A6146E0FB68032B97
:1018A00014D9FB68072B11D8FB68043BFB607B68ED
:1018B0005B687A6852685169FA68D200033218206E
:1018C000041C9440221C0A435A612EE0FB68072B3B
:1018D00014D9FB680B2B11D8FB68083BFB607B68B5
:1018E0005B687A6852689169FA68D20003321820FE
:1018F000041C9440221C0A439A6116E0FB680B2BDF
:1019000013D9FB680F2B10D8FB680C3BFB607B687E
:101910005B687A685268D169FA68D200033218208D
:10192000041C9440221C0A43DA61BD4605B090BDF8
:1019300080B584B000AF78607868002101F06AFD5E
:10194000031C002B05D07B68802212065340FB60ED
:1019500001E07B68FB60FB68181CBD4604B080BDDD
:10196000B0B5AEB000AFF860B9607A600023B420C3
:10197000C01903600023B021C9190B60FB68AC22B9
:10198000D21913600023A820C01903600023882106
:10199000C9190B600023FB67E04BA822D219136022
:1019A000AC23DB19186802F04BF9041CA821C919F3
:1019B000086802F045F9031C201C191C01F074FD95
:1019C000031CBB67B86FFE21890501F037FD031CBE
:1019D000002B17D08023DB00A422D21913603B1CFC
:1019E000833301221A70AC20C0190368FB67A82159
:1019F000C9190B68AC22D2191360FB6FA820C0195B
:101A0000036008E03B1C833300221A708023DB0054
:101A1000A421C9190B6000238422D219136000236A
:101A20009020C019036000238C21C9190B603B1C56
:101A30006033AC20C01902681A603B1C4033A821F7
:101A4000C9190A681A603B1C303301221A603B1C1A
:101A5000203300221A608422D219136801338420B3
:101A6000C01903608C21C9190B687B679022D219B9
:101A700013688C20C01903608421C9190A680323E4
:101A800013409022D21913603B1C60338C20C01984
:101A900002689200D1583B1C50339020C019026854
:101AA0009200D1503B1C40338C21C9190A68920026
:101AB000D1583B1C60339020C01902689200D1506D
:101AC0003B1C50339021C9190A689200D2583B1C24
:101AD00060339020C01901688900CB58101C191C74
:101AE00001F036FC031C191C3B1C10339020C0195C
:101AF00002689200D1503B1C50339021C9190A68EA
:101B00009200D2583B1C60339020C01901688900B4
:101B1000CB58101C191C01F05FFC0B1C191C3B1C42
:101B200040339020C01902689200D1508421C91915
:101B30000B68012B0AD13B1C10335A683B1C303315
:101B40005A603B1C203301225A6037E03B1C1033A3
:101B50009020C01902689200D3583A1C30328C2071
:101B6000C019016889008A585A433B1C3033796F89
:101B70008900CB58D1183B1C30339020C019026823
:101B80009200D1503B1C10339021C9190A68920071
:101B9000D3583A1C20328C20C019016889008A5819
:101BA0005A433B1C2033796F8900CB58D1183B1C1A
:101BB00020339020C01902689200D1503B1C203382
:101BC0009021C9190A689200D258A420C01903684C
:101BD0009A4200D8FDE03B1C30338C21C9190A68B9
:101BE0009200D358A022D21913603B1C20338C20C2
:101BF000C01902689200D3589821C9190B603B1C88
:101C000020337A6F9200D358A420C0190268D21AE8
:101C10003B1C20338C20C01901688900CB58101C54
:101C2000191C01F095FB031C3B679021C9190B6837
:101C30005A1E3B1C30339200D3583A6F5A439020BF
:101C4000C0190368991E3B1C30338900CB58D31848
:101C50009C21C9190B609022D21913685A1E3B1C93
:101C600020339200D3583A6F5A433B1C2033796F8C
:101C70008900CB58D3189420C01903603B1C8333D0
:101C80001B78002B1BD0A021C9190B68FB67982279
:101C9000D2191368A020C0190360FB6F9821C919DD
:101CA0000B609C22D2191368FB679420C01903684B
:101CB0009C21C9190B60FB6F9422D21913609820E4
:101CC000C0190368002B04D0A021C9190B68002B90
:101CD0000CD19C22D2191368B420C019036094213E
:101CE000C9190B68B022D21913606DE09420C01995
:101CF0000368002B04D09C21C9190B68002B0FD15D
:101D0000A022D2191368B420C01903609821C91900
:101D10000B68B022D219136056E0C0460D030000D4
:101D2000A023DB19186801F08BFF041C9821C91946
:101D3000086801F085FF031C201C191C01F0B4FB8E
:101D4000031CB86F191C01F0A1FD031C181CFFF740
:101D5000EFFD041C9C22D219106801F071FF051CD4
:101D60009423DB19186801F06BFF031C281C191C55
:101D700001F09AFB031CB86F191C01F087FD031CCE
:101D8000181CFFF7D5FD031C201C191C01F056FB85
:101D9000031C002B0CD09C20C0190368B421C91966
:101DA0000B609422D2191368B020C01903600BE0B5
:101DB000A021C9190B68B422D21913609820C01948
:101DC0000368B021C9190B6005238822D21913605A
:101DD00033E03B1C40339020C01902689200D35876
:101DE000002B2AD13B1C30339021C9190A6892007C
:101DF000D358B422D21913603B1C20339020C01951
:101E000002689200D358B021C9190B603B1C833380
:101E10001B78002B0DD0B422D2191368FB67B020B9
:101E2000C0190368B421C9190B60FB6FB022D21925
:101E3000136005238820C01903608821C9190B6825
:101E4000052B00D007E6B423DB191A680A4B9A4227
:101E500003D9094BB420C01903607B68B421C919A8
:101E60000A681A60B022D21913685A1EBB681A6039
:101E7000BD462EB0B0BDC046FF03000080B582B0A5
:101E800000AF1D4BC0225A621C4B1C4A12681C49F1
:101E90000A431A60194B194A126908210A431A6148
:101EA000C046164B1A688023DB051340F9D1124B4C
:101EB000C3225A6200237B6017E0124B7A689200BB
:101EC000D3581B7D012B06D10E4B7A689200D35854
:101ED000181CFFF7BDFC0B4B7A689200D358181CF6
:101EE000FFF7DCFB7B6801337B607B68002BE4D071
:101EF000BD4602B080BDC046000001400003014065
:101F00000000F03F900B002080B582B000AF7860F9
:101F1000BD4602B080BDC04680B58AB000AFF86053
:101F2000B960111C1A1CFB1D1970BB1D1A7000230F
:101F30007B6100233B61FB681B683B6205237B627E
:101F40003B6A9A6C01231340FB613B6A9A6C022343
:101F500013405B08BB61FB69BA691340012B56D182
:101F60003B6A1B6C0222191C91430A1C3B6A1A64CF
:101F7000B9683A1C14323B1C1033081C111C1A1C83
:101F8000FFF7EEFC3B6A1B699B0A9A023B6A1A61E7
:101F90003B6A1A693B699B059B0D1A433B6A1A61B0
:101FA0003B6A5A691D4B1A403B6A5A613B6A5A693F
:101FB0007B6919041A4B0B401A433B6A5A613B6A0E
:101FC000DB6B0222191C91430A1C3B6ADA633B6AF1
:101FD000DA6BBB1D1B78590002230B401A433B6A86
:101FE000DA633B6A1A6C0F4B1A403B6A1A643B6A0D
:101FF0001A6CFB1D1B781902C0239B000B40134376
:1020000002221A433B6A1A6400237B6201E0032325
:102010007B627B6A181CBD460AB080BDFFFF00FCD6
:102020000000FF03FFFCFFFF80B586B000AFF86043
:10203000B9607A6000237B61FB681B683B61FB68C9
:10204000DB7F002B1CD00FE03A698E235B00D35856
:102050009AB2BB681A807B68013B7B607B69013365
:102060007B61BB680233BB603A698A235B00D2584C
:1020700008231340DB080BD17B68002BE4D107E079
:102080003B695B6D9AB2BB681A807B6901337B61E7
:102090007B69181CBD4606B080BDC04680B586B0C1
:1020A00000AFF860B9607A6000237B61FB681B6851
:1020B0003B61FB68DB7F002B1CD00FE03A698E236D
:1020C0005B00D358DAB2BB681A707B68013B7B6057
:1020D0007B6901337B61BB680133BB603A698A234A
:1020E0005B00D25808231340DB080BD17B68002B20
:1020F000E4D107E03B695B6DDAB2BB681A707B69BB
:1021000001337B617B69181CBD4606B080BDC046AB
:1021100080B586B000AFF860B9607A6000237B615B
:10212000FB681B683B61FB689B7F002B1DD00FE0A9
:10213000BB681B88191C3A69C0235B00D1507B68BF
:10214000013B7B607B6901337B61BB680233BB6011
:102150003A698A235B00D25880235B0113401B0B32
:1021600011D17B68002BE3D10DE03B699A6B802392
:10217000134008D1BB681B88191C3A698023D150D1
:102180007B6901337B617B69181CBD4606B080BD4D
:1021900080B586B000AFF860B9607A6000237B61DB
:1021A000FB681B683B61FB689B7F002B1DD00FE029
:1021B000BB681B78191C3A69C0235B00D1507B684F
:1021C000013B7B607B6901337B61BB680133BB6092
:1021D0003A698A235B00D25880235B0113401B0BB2
:1021E00011D17B68002BE3D10DE03B699A6B802312
:1021F000134008D1BB681B78191C3A698023D15061
:102200007B6901337B617B69181CBD4606B080BDCC
:1022100080B586B000AF78600A1CFB1C1A700123E1
:102220007B6100233B617B681B68FB60FB1C1B78A8
:102230000F2B0AD8FB689B6C3B61FB1C1B780122AF
:102240009A403B6913403B611EE0FB1C1B78122B3C
:102250000DD8FA688A235B00D3583B61FB1C1B78BE
:10226000103B01229A403B6913403B610CE0FA6845
:102270008A235B00D3583B61FB1C1B780B3B01227C
:102280009A403B6913403B613B69002B01D002231C
:102290007B617B69181CBD4606B080BD80B584B0EB
:1022A00000AF78600A1CFB1C1A707B681B68FB601F
:1022B000FB1C1B780F2B0BD8FB68DA6CFB1C1B7804
:1022C0000121081C9840031C1A43FB68DA6426E0CD
:1022D000FB1C1B78122B11D8FA688C235B00D25898
:1022E000FB1C1B78103B0121081C9840031C111C8F
:1022F0001943FA688C235B00D15010E0FA688C23F4
:102300005B00D258FB1C1B780B3B0121081C98403A
:10231000031C111C1943FA688C235B00D150BD4685
:1023200004B080BDB0B582B000AF021C3960FB1DA7
:102330001A70FB1D1B787F2B32D93049FB1D1B788F
:102340001A1C0F231340083B98082C4AFB1D1B78CE
:102350001C1C0F232340083B9B0806339B00D3180B
:102360005B68FA1D1278141C03222240D200FF245D
:10237000251C95402A1CD2431A403B689C01FF2330
:102380001C40FB1D1B781D1C03232B40DB00251C60
:102390009D402B1C1A43831D9B00CB185A6029E0DB
:1023A000174BFA1D127852B292081549F81D0078A1
:1023B00040B28008C03080004158F81D0078041CED
:1023C00003202040C000FF24251C8540281CC0435A
:1023D000084039688C01FF210C40F91D09780D1C5B
:1023E00003212940C900251C8D40291C0143C0320E
:1023F0009200D150BD4602B0B0BDC04600ED00E035
:1024000000E100E080B582B000AF78607B685A1EC2
:102410000C4B9A4201D9012310E00B4B7A68013A28
:102420005A6001235B42181C0321FFF77BFF064B18
:1024300000229A60044B07221A600023181CBD4634
:1024400002B080BDFFFFFF0010E000E080B586B065
:1024500000AF7860504A7B685B01D31808331B6873
:10246000FB604E4B1B68002B06D17B685A014A4B20
:10247000D2184A4B1A608BE0484B1B687B61FB68A3
:102480003B6181E07B699B683A69D31A3B613B6998
:10249000002B5ADA7B69DB69002B1CD07B69DB6976
:1024A0007A6851013C4A8A189A617B69DA693A492B
:1024B0007B685B01CB181C331A60374A7B685B0171
:1024C000D31818337A691A607B685A01324BD218D4
:1024D0007B69DA6114E0314B1A682F497B685B0134
:1024E000CB1818331A602D4B1B687A6851012A4AA1
:1024F0008A18DA617B685A01274BD218274B1A6079
:10250000254A7B685B01D31818331B689A683B69BE
:10251000D21821497B685B01CB1808331A601E4A28
:102520007B685B01D31818331B681B497A6852011A
:102530008A1818321268916817487A68520182180E
:10254000083212688A1A9A6022E03B69002B18DB75
:102550007B699B69002B14D10F4A7B685B01D31800
:102560001C337A691A607B685A010B4BD2187B695D
:102570009A613A6908497B685B01CB1808331A6095
:1025800006E07B699B697B617B69002B00D079E762
:10259000BD4606B080BDC046500A00203809002064
:1025A00080B584B000AF78607B685A01274BD318A0
:1025B000FB60FB68DB69002B07D1FB689B69002B84
:1025C00003D1234B00221A603DE0FB68DB69002B3E
:1025D00014D1FB689A691E4B1A601D4B1B680022C0
:1025E000DA61FB689B69FA6892699168FA68926897
:1025F0008A189A60FB6800229A6124E0FB689B6954
:10260000002B07D1FB68DB6900229A61FB6800227E
:10261000DA6118E0FB68DB69FA6892699A61FB6825
:102620009B69FA68D269DA61FB689B69FA6892690A
:102630009168FA6892688A189A60FB6800229A6129
:10264000FB680022DA61BD4604B080BD500A00205C
:102650003809002080B582B000AF1F4B1B687B603B
:102660002DE07B681B79002B0ED17B681B68181C42
:10267000FFF796FF7B6801225A717B681A697B68B5
:102680005B69181C904717E07B681B79012B1ED1F2
:102690007B681B68181CFFF783FF7B68DA687B6820
:1026A0009A607B681B68181CFFF7D0FE7B681A696C
:1026B0007B685B69181C9047074B1B687B607B68D5
:1026C000002B05D07B689B68002BCAD000E0C04679
:1026D000BD4602B080BDC0463809002080B582B03A
:1026E00000AF0E4B1B687B600D4B1B685A1C0C4BDC
:1026F0001A607B68002B0ED07B689B68012B05D984
:102700007B689B685A1E7B689A6004E07B680022A5
:102710009A60FFF79FFFBD4602B080BD38090020D8
:102720004009002080B582B000AF00237B600C4BD5
:1027300000221A6000F0F4FCFA235B01181CFFF77A
:1027400061FE031C7B6001235B42181C0121FFF723
:10275000E9FD044B00221A60BD4602B080BDC046B0
:10276000380900203C09002080B588B000AFF8602F
:102770007A603B603B1C0B330A1C1A700023FB6120
:102780000023BB6100237B613B1C0B331B78002BB8
:1027900006D03B1C0B331B78012B01D001237B613E
:1027A000FB68002B01D101237B61FB68002B01D169
:1027B00001237B617B68002B01D101237B617B6955
:1027C000002B59D10023BB6153E02E4B1A68BB6923
:1027D000DA400123134049D1BB6901229A40294BB9
:1027E0001B681A43274B1A60274BBA695201B96913
:1027F000D1502549BB695B013A1C0B32CB181278CA
:102800001A71214ABB695B01D31801225A71FB6816
:102810005A1C1D49BB695B01CB1808331A601A4A60
:10282000BB695B01D3180C33FA681A60164ABB699E
:102830005B01D31810337A681A60134ABB695B01D5
:10284000D31814333A681A600F4ABB695B01D31876
:102850001C3300221A600C4ABB695B01D318183381
:1028600000221A60BB690133FB6105E0BB690133DB
:10287000BB61BB69092BA8D9FB69181CBD4608B010
:1028800080BDC0463C090020500A002080B584B0BD
:1028900000AF78600023FB607B680A2B01D901231D
:1028A000FB60184B1A687B68013BDA400123134038
:1028B00001D10123FB607B68013B134A5B01D31804
:1028C00008331B68002B01D10123FB60FB68002B40
:1028D00013D17B68013B0C4A5B01D3185B79002B59
:1028E0000BD07B68013B084A5B01D31800225A7168
:1028F0007B68013B181CFFF7A9FDFB68181CBD464F
:1029000004B080BD3C090020500A002080B584B08E
:1029100000AF78600023FB607B680A2B01D901239C
:10292000FB60134B1A687B68013BDA4001231340BC
:1029300001D10123FB60FB68002B13D17B68013BB5
:102940000C4A5B01D3185B79012B0BD07B68013BF0
:10295000181CFFF725FE7B68013B064A5B01D31874
:1029600001225A71FB68181CBD4604B080BDC046E8
:102970003C090020500A002080B584B000AF786088
:102980000023FB607B680A2B01D90123FB60154BF8
:102990001A687B68013BDA400123134001D101230F
:1029A000FB60FB68002B18D17B68013B0E4A5B0182
:1029B000D3185B79002B04D17B68013B181CFFF70F
:1029C000EFFD7B68013B0122111C99400B1CDA438F
:1029D000044B1B681A40034B1A60FB68181CBD4669
:1029E00004B080BD3C090020500A002080B500AF33
:1029F000024B1B68181CBD4680BDC0464009002024
:102A000090B585B000AF7860786801F095FF031C41
:102A10000C1C181C211C0D4B0B4A01F065F9031C02
:102A20000C1C181C211C0A4A0A4B01F05DF9031CFE
:102A30000C1C181C211C00F017FD031CFB60FB681C
:102A4000181CBD4605B090BD0000000000002040ED
:102A50000000000000408F4080B582B000AF021C33
:102A6000FB1D1A70064BFA1D1278111C1F220A401A
:102A70000121081C9040021C1A60BD4602B080BDB6
:102A800000E100E0B0B582B000AF021C3960FB1D70
:102A90001A70FB1D1B787F2B32D93049FB1D1B7828
:102AA0001A1C0F231340083B98082C4AFB1D1B7867
:102AB0001C1C0F232340083B9B0806339B00D318A4
:102AC0005B68FA1D1278141C03222240D200FF24F6
:102AD000251C95402A1CD2431A403B689C01FF23C9
:102AE0001C40FB1D1B781D1C03232B40DB00251CF9
:102AF0009D402B1C1A43831D9B00CB185A6029E074
:102B0000174BFA1D127852B292081549F81D007839
:102B100040B28008C03080004158F81D0078041C85
:102B200003202040C000FF24251C8540281CC043F2
:102B3000084039688C01FF210C40F91D09780D1CF3
:102B400003212940C900251C8D40291C0143C032A6
:102B50009200D150BD4602B0B0BDC04600ED00E0CD
:102B600000E100E080B582B000AF78607B681B7840
:102B7000DBB25BB2181CFFF76FFFBD4602B080BD31
:102B800080B582B000AF00237B6009E0074B7A6814
:102B90009200D358181C00F00BF87B6801337B605F
:102BA0007B68012BF2D9BD4602B080BD940B00209A
:102BB00080B582B000AF78607B681B78DAB27B6842
:102BC0005B7852B2101C191CFFF75CFF7B68DB7846
:102BD000012B03D17B68181CFFF7C4FFBD4602B070
:102BE00080BDC04680B500AF0A4B5B6800225A60CA
:102BF000084B5B68074A526812691A61064B5B68AA
:102C000000225A60044B5B68034A526812691A61D9
:102C1000BD4680BD404F0010484F001090B585B0B4
:102C200000AF78600A1CFB1C1A703B1C0F337A68DB
:102C300052781A703B1C0F331B78032B24D87B6807
:102C40005B687A6852681269391C0F310978C900CB
:102C500003311F20041C8C40211CC9430A401A6107
:102C60007B685B687A6852681169FA1C10781F22C9
:102C700010403A1C0F321278D2000332041C9440E8
:102C8000221C0A431A61A0E03B1C0F331B78032B64
:102C900030D93B1C0F331B78072B2BD83B1C0F3331
:102CA0003A1C0F321278043A1A707B685B687A68B3
:102CB00052685269391C0F310978C90003311F204D
:102CC000041C8C40211CC9430A405A617B685B6824
:102CD0007A6852685169FA1C10781F2210403A1C19
:102CE0000F321278D2000332041C9440221C0A4393
:102CF0005A616AE03B1C0F331B78072B30D93B1C11
:102D00000F331B780B2B2BD83B1C0F333A1C0F3285
:102D10001278083A1A707B685B687A685268926920
:102D2000391C0F310978C90003311F20041C8C4065
:102D3000211CC9430A409A617B685B687A685268C3
:102D40009169FA1C10781F2210403A1C0F32127839
:102D5000D2000332041C9440221C0A439A6134E0DE
:102D60003B1C0F331B780B2B2FD93B1C0F331B78CD
:102D70000F2B2AD83B1C0F333A1C0F3212780C3A17
:102D80001A707B685B687A685268D269391C0F31A7
:102D90000978C90003311F20041C8C40211CC94341
:102DA0000A40DA617B685B687A685268D169FA1C0C
:102DB00010781F2210403A1C0F321278D2000332D2
:102DC000041C9440221C0A43DA61BD4605B090BD44
:102DD00090B585B000AF78600A1CFB1C1A703B1CD4
:102DE0000F337A6852781A703B1C0F331B78032B11
:102DF00024D87B685B687A6852681269391C0F3185
:102E00000978C90003311F20041C8C40211CC943D0
:102E10000A401A617B685B687A6852681169FA1C1B
:102E200010781F2210403A1C0F321278D200033261
:102E3000041C9440221C0A431A61A0E03B1C0F337F
:102E40001B78032B30D93B1C0F331B78072B2BD857
:102E50003B1C0F333A1C0F321278043A1A707B680D
:102E60005B687A6852685269391C0F310978C90069
:102E700003311F20041C8C40211CC9430A405A61A5
:102E80007B685B687A6852685169FA1C10781F2267
:102E900010403A1C0F321278D2000332041C9440C6
:102EA000221C0A435A616AE03B1C0F331B78072B34
:102EB00030D93B1C0F331B780B2B2BD83B1C0F330B
:102EC0003A1C0F321278083A1A707B685B687A688D
:102ED00052689269391C0F310978C90003311F20EB
:102EE000041C8C40211CC9430A409A617B685B68C2
:102EF0007A6852689169FA1C10781F2210403A1CB7
:102F00000F321278D2000332041C9440221C0A4370
:102F10009A6134E03B1C0F331B780B2B2FD93B1CE1
:102F20000F331B780F2B2AD83B1C0F333A1C0F3260
:102F300012780C3A1A707B685B687A685268D269BA
:102F4000391C0F310978C90003311F20041C8C4043
:102F5000211CC9430A40DA617B685B687A68526861
:102F6000D169FA1C10781F2210403A1C0F321278D7
:102F7000D2000332041C9440221C0A43DA61BD468D
:102F800005B090BD80B500AF00F0BEF800F0C8F805
:102F9000FEF774FFFFF726FEFFF7C4FBFFF7F0FD17
:102FA00000F002F8BD4680BD80B586B000AF3B1C86
:102FB00000221A60043300221A60043300221A60CF
:102FC000043300221A60043300221A600433002202
:102FD0001A6004333B1C1A689023DB05196C0F231D
:102FE0000B401A433B1C1A609023DB059022D2054C
:102FF000126C0F218A431A649023DB059022D205BC
:10300000D26907218A4306210A43DA619023DA054F
:103010009023D90584235B00CB588021C90519432F
:1030200084235B00D1509023DA059023D9058623B1
:103030005B00CB588021C905194386235B00D15022
:103040009023DA059023D90584235B00C958284BC7
:103050000B4080214902194384235B00D150902307
:10306000DA059023D90584235B00C958214B0B4016
:103070002149194384235B00D1509023DA05902322
:10308000D90586235B00C9581A4B0B40802149049F
:10309000194386235B00D1509023DB053A1C11684D
:1030A0000F2211409022D205126C0F2082430A4356
:1030B0001A64124B114A126980210A431A610F4B9C
:1030C0000E4A1269802109020A431A610C4B0C4A0C
:1030D000126E02218A431A66094B094A1169094A8C
:1030E0000A40B02109020A431A61BD4606B080BDFC
:1030F000FFFFF8FFC0FFFFF80200000100010440DD
:1031000000020440FF47FFFF80B500AF034B034AB6
:10311000126E04218A431A66BD4680BD0002044037
:1031200080B500AF0C4BC0225A62C0460A4B5A6AA7
:1031300004231340FAD1094B084A1268802149023E
:103140000A431A6000F012F8034BC3225A62FEF7DA
:1031500097F9BD4680BDC046000001400003014014
:1031600080B500AF0023181CBD4680BD80B584B07B
:1031700000AF0023FB600023BB60184B1A68FF23DD
:103180001B0213401B0AFB600423BB60134B1B682C
:103190007B607B68FF2293437B60104B7A681A60E8
:1031A0000E4B0E4A12680E490A431A60C0460B4B7A
:1031B0001A688023DB051340F9D1FA68BB689A428C
:1031C00008D0FA68BB689A4202D200F069F801E0C0
:1031D00000F008F8BD4604B080BDC04600030140C1
:1031E0000000F03F80B584B000AF2A4B1A68FF237F
:1031F0001B0213401B0AFB600423BB60BB689A00E0
:10320000FB689A4224D2FB68032293430433FB6099
:10321000FB689B08FB601F4B1B687B60FB681B0205
:103220001B041A0C79681C4B0B4013437B60194B31
:103230007A681A60174B174A126818490A431A60CD
:10324000C046144B1A688023DB051340F9D11CE0FB
:10325000104B1B687B60BB681B021B041A0C79684F
:103260000D4B0B4013437B600A4B7A681A60094B85
:10327000084A126809490A431A60C046054B1A6891
:103280008023DB051340F9D100E0B7E7BD4604B069
:1032900080BDC04600030140FF00FFFF0000F03F7B
:1032A00080B584B000AF274B1A68FF231B02134080
:1032B0001B0AFB600423BB60FB689A00BB689A4250
:1032C0001FD2FB689B00FB601E4B1B687B60FB688A
:1032D0001B021B041A0C79681B4B0B4013437B60C9
:1032E000184B7A681A60174B164A126817490A4336
:1032F0001A60C046134B1A688023DB051340F9D1CE
:103300001CE0104B1B687B60BB681B021B041A0C83
:1033100079680D4B0B4013437B600A4B7A681A6047
:10332000084B084A126809490A431A60C046054B0F
:103330001A688023DB051340F9D100E0BCE7BD46E5
:1033400004B080BD00030140FF00FFFF0000F03F1C
:10335000002934D00123002210B488422CD3012448
:103360002407A14204D2814202D209011B01F8E7DD
:10337000E400A14204D2814202D249005B00F8E796
:10338000884201D3401A1A434C08A04202D3001BC2
:103390005C0822438C08A04202D3001B9C082243F5
:1033A000CC08A04202D3001BDC082243002803D033
:1033B0001B0901D00909E3E7101C10BC7047002865
:1033C00001D00020C04307B4024802A14018029077
:1033D00003BDC046190000000029F0D003B5FFF777
:1033E000B9FF0EBC4243891A1847C0467047C04611
:1033F0008446081C6146FFE71FB500F0FFF900286E
:1034000001D40021C8421FBD10B500F087F9404229
:10341000013010BD10B500F0F1F9002801DB0020EB
:1034200010BD012010BDC04610B500F0E7F900281E
:1034300001DD002010BD012010BDC04610B500F018
:1034400095F9002801DC002010BD012010BDC04608
:1034500010B500F08BF9002801DA002010BD012022
:1034600010BDC0460000000038B50E4B0C4A041CCD
:103470000D1C01F0C7FA002804D1201C291C01F002
:1034800027FA38BD074B064A201C291C00F09EFE77
:1034900001F01EFA802319064018F2E7C046C04624
:1034A000000000000000E041F0B55F4656464D4682
:1034B0004446F0B44502440083B00E1C6D0A240E4D
:1034C000C70F002C07D1002D00D091E0042101226C
:1034D0008846924609E0FF2C55D08023180400212D
:1034E0000543ED007F3C88468A46331C580076022F
:1034F000D90F760A000E8B464CD101229446002E3D
:1035000000D081E05B467B406246414601930A431E
:103510000F2A50D9201A690181467501A94200D3AA
:10352000B3E00122534299441B2400260127621E66
:10353000381C10404B007600002900DAA9E09D42BB
:1035400000D8A6E0013C002C00DCABE000280CD049
:10355000191C76005B00002901DB9D4201D85B1B32
:103560003E43013C002C00DC9CE059007200002B23
:1035700001DB8D4201D8491B3A43013C4B00560008
:103580000029EADAEBE7002D2DD108200221804640
:103590008A46AAE7FF2820D08022130400211E4378
:1035A0008C465B467B4062464146F6007F3801937D
:1035B0000A430F2AAED8564992008A589746019B73
:1035C000FF260025F0052843DE07304303B03CBC4E
:1035D00090469946A246AB46F0BD331C5A1E934115
:1035E00002339C468EE70C22032390469A467CE7E2
:1035F000281C01F011FA7622441F5342A5401C1AE0
:1036000000208046824670E7301C01F005FA7623E0
:10361000411F8E405A420021101A8C4672E7002347
:103620003C4DFF26CEE75F46351C01976346022BD3
:10363000C5D0032B63D0012B43D049467F310029ED
:1036400035DD0F272F40042F00D004352B0103D583
:10365000314A494615408031FE29B0DCA801450AAF
:10366000CEB2019BAEE700260025ABE78020C10368
:103670000D4211D00E420FD10E4373025D0AFF2698
:103680005B469FE701975346D1E7491B1A24012661
:103690004CE75B1B3E4355E70D436A02550A3B1C52
:1036A000FF268FE71D1C6B1E9D413543C5E77E2419
:1036B00067424A46B91A1B2908DD019B00260025EE
:1036C00080E7019D00262B4000257BE74E469E3675
:1036D000281CB5402B1C5D1EAB41C84003430F2581
:1036E0001D40042D00D004335A0103D5019B01264F
:1036F000002567E79C01650A019B002662E7802799
:10370000FC0325436E02750A019BFF265AE7C0465B
:10371000504F0010FFFF7F00FFFFFFF74302420002
:1037200070B55C0AC60F130E48024A00450A120E15
:10373000C90FFF2B05D0FF2A08D0012093420BD0E0
:1037400070BD0120002CFBD1FF2AF6D10120002DF5
:10375000F6D101209342F3D1AC42F1D18E4203D095
:10376000002BEDD1002CEBD10020E9E7F0B54302AE
:1037700042004F00C60F48025C0A450A130EC90FEB
:103780003A0EFF2B26D0FF2A29D0002B0CD1604205
:1037900060418446002A0AD0002816D18E4221D0EA
:1037A000002E14D1012014E0002AF7D194466F4274
:1037B0006F416046002805D1002FEFD00120002E78
:1037C00007D004E00020002F03D10029EAD1012115
:1037D0004842F0BD002CD6D002225042F9E7002D1D
:1037E000D3D0F9E79342DBDC04DBAC42D8D800202D
:1037F000AC42EED2002EEAD00120EAE7F0B5430257
:1038000042004F00C60F48025C0A450A130EC90F5A
:103810003A0EFF2B26D0FF2A28D0002B0FD0002AEB
:1038200014D194466F426F416046002814D00020A6
:10383000002F03D100290DD101214842F0BD604283
:1038400060418446002AEDD00028F3D18E4211D089
:10385000002EF1D10120F1E7002FF7D00120002E3A
:10386000ECD0E9E70220002CE8D1D4E70220002DBB
:10387000E4D1D2E79342EBDC04DBAC42E8D8002091
:10388000AC42DBD2002ED7D00120D7E7F8B54302F7
:1038900045004F024C00C20F980984462D0E200EA1
:1038A000C90FBF09FF2854D0012671408A423BD07E
:1038B0002C1A002C00DC89E0002825D1002F4BD1E8
:1038C0006E1C2C1C6346151C0F221A40042A00D0C3
:1038D00004338027F904012219402A40002906D028
:1038E000FF2E00D181E0B14D341C2B400136F6B2E1
:1038F000DD08012E62DD6B025D0AE4B2E4052543BA
:10390000281CD2071043F8BDFF2D51D08021CB04D5
:103910001F4301261B2C70DD67462C1CBB1B151C8E
:10392000580122D4661CCFE72E1A002E76DD00281F
:1039300032D0FF2D3CD08024E1040F4301231B2E05
:1039400000DCD1E063442C1C58017AD4661C151CA1
:10395000BAE7002FAAD1A7E7013C002C6DD163463E
:103960002C1CDB1B151C5801DCD59A019609301C58
:1039700001F052F805388640844239DC001B1F23D1
:103980001A1A331C311C441C9340E1405E1EB341A3
:103990000B430126002497E7002F00D190E7013E5A
:1039A000002E03D164463B192C1CCDE7FF2DC5D159
:1039B000151C802263465600FF2485E7002D9CD00D
:1039C000002C28D08020C7033D4394E7002C45D12C
:1039D0006B1CD8B2012800DC90E06446E61B730142
:1039E00057D53E1B2C1C0D1CC1E7FF24002585E785
:1039F0006E4B241A3340661C66E7381C2021E040D9
:103A00000C1BA7403E1C771EBE41064367462C1C7C
:103A1000BB1B151C84E769024D0A6FE7002E79D1A4
:103A20006C1CE0B201284BDDFF2C00D198E0614610
:103A30007F18AE1C7B08151C46E7FF2D00D068E7F9
:103A4000B6E7671CFF2F36D05848012119400340C4
:103A50005B08A61C0B433C1C151C35E76642002D79
:103A60001ED0FF286FD080256246EB041A4394468F
:103A700001251B2E09DC62462023F24064469E1B72
:103A8000B440251C6C1EA54115437B1B041C0D1C5A
:103A900069E7002E0CD1002201260423002426E72A
:103AA0006446002C55D1461C3B1C041C0D1C0BE726
:103AB0002C1C151C5BE780235E00FF24042316E703
:103AC000002D00D08DE06546002D00D1ADE0002F27
:103AD00000D181E07B195C0100D47EE0334F151CDE
:103AE0003B4002260124EFE6381C2023F0409E1BB9
:103AF000B7403B1C5F1EBB41034323E7002D15D19C
:103B00006546002D47D1002FC5D03B1C0D1C01265A
:103B10000024D9E67642002D26D16546002D00D03E
:103B20007DE0461C3B1C041C151CCDE66546002DA3
:103B300040D1002F07D1802100224E001C4BFF24D2
:103B4000D5E6FF2894D180203B1C0D1C4600FF24A5
:103B5000BAE6013E002EF4D13B1B0D1C041C02E70B
:103B600080256E000423C2E6FF2852D080246146DF
:103B7000E30419438C4601231B2E09DC20216446F3
:103B8000F44065468E1BB5402B1C591E8B412343C8
:103B9000DB19041CD8E6002F1ED0EB1B58014BD5B7
:103BA0007B1B01260D1C00248EE6C046FFFFFFFB99
:103BB000FCFFFF03002F00D1FAE68020EB08C403CE
:103BC000234237D0FF08274234D13B1C0D1C8022F2
:103BD000DB005600FF2477E66346151C012600240F
:103BE00072E66446002C14D0002F00D1E0E680235A
:103BF000E608D803311C064203D0F908014200D080
:103C0000311C151C8022CB005600FF245CE6FF28E7
:103C1000B1D180203B1C151C4600FF2454E6013E18
:103C2000002EF4D17B19041C8EE63B1C151C0126CA
:103C3000002449E6151CCAE7002B00D12BE7CCE78E
:103C400010B5041E34D000F0E7FE9E231B1A962BFD
:103C500007DC083884406402610ADBB2D8050843F7
:103C600010BD992B0ADD021C1B32211C91400A1C3D
:103C7000511E8A410521091ACC40144305281ADC3B
:103C8000184A0F2122400C40042C00D0043251016C
:103C900005D59F24231AFF2B21D012480240591C1E
:103CA000CCB2D208012C09DD5002410ADBB2D5E7C3
:103CB00000230021D2E7421F9440E1E7002A0BD005
:103CC000002B06D08021CC0322435202510ADBB2E2
:103CD000C4E75002410AC1E7DBB20021BEE7FF237F
:103CE0000021BBE7FFFFFFFBF0B5564644465F46A9
:103CF0004D46F0B44F001D1C0B03141C1A0B7B0D1A
:103D000087B0061C92469846CF0F002B21D1024364
:103D100000D149E15346002B00D1E4E1504600F0C8
:103D20007BFE031E272B00DDD8E1083B514699405E
:103D300028228846111A321CCA4041460A4392463C
:103D40009E40D84B0022181A0021804691460391CC
:103D500011E0D54883423ED0802153464A031A439E
:103D6000D000710F0843D14A824600230020F6009C
:103D7000904499460390291C201C251C4A000C03E2
:103D8000CB0F240B520D9B4631D1211C014300D196
:103D900012E1002C00D19DE1201C00F03DFE2728FF
:103DA00000DD91E1031C2822083B291C121A9C40CB
:103DB000D1400C439D40BB4B59461A1A7940002014
:103DC0004B46019103430F2B26D89900B84B8C46E4
:103DD000634419688F46111C314300D0DFE0082688
:103DE00000200221B146824600260391C3E7AE4877
:103DF000824200D1C9E080214B031C43AB49680FCC
:103E0000E4000443ED0052180020594679404B4627
:103E1000019103430F2BD8D942443304290404925F
:103E20001A0C0F0C101C7843360C331C80462D0CDA
:103E30007B43301C6843111C69439C4643468346C0
:103E4000180C08186044844500D91FE1010C434652
:103E5000039119040B0C0004C0182104240C0590D4
:103E6000101C6243090C02924843321C66434A43C9
:103E7000029BB146060C9046B4461A1C624442446A
:103E8000904502D9802673029944160CB046C1446D
:103E900000044B46060C1204029393195646320452
:103EA000100C021C6A439C46031C7B439146320C57
:103EB000574398461B0C9A46D144B94455434F4545
:103EC00002D980277E02AD194B461F0C4646ED19DC
:103ED0001F0433041E0C031C4B43604351435443E3
:103EE0001A0C8018B046401847449A46814202D9BD
:103EF00080214E02A419039B1A1C62445A44624555
:103F000089414E425146B34603040E049C46029931
:103F1000330C6344CE18B046C246DA44D219BA42D2
:103F2000BF4151467B426F18F9189946DA459B41CB
:103F30005E42029BB3469845B64176425B461E43BD
:103F4000000C49459B41AF42AD4136186F42584283
:103F5000384336180598341956020643CB0D6402CF
:103F6000701E8641D20D164349021C430E43E001E8
:103F70002FD50127049D374073083E1CE00701350B
:103F80001E4304950643640823E0231C2B430320AF
:103F9000002B00D039E700240025022035E70C2251
:103FA000032391460393E6E6042600230120B1464D
:103FB0009A4600260390DEE600240025012024E72F
:103FC00003985446022844D0032800D1EAE001288F
:103FD00060D0049A37495018002800DC95E00F277C
:103FE0003740042F05D0311DB142B64175426419E6
:103FF0000E1CE10105D53048049A8023DF000440FF
:10400000D0192E49884224DC019B6507F60864021A
:10401000420501272E43240B520D1F400020002192
:10402000090D0D052543264C12052C401443630051
:10403000301C5E08FF07311C394307B03CBC90467A
:104040009946A246AB46F0BD5A462E1C0192022864
:10405000BAD1019E01273740134A00240026DDE72C
:10406000544601970398ADE701260027154C764288
:104070000D4AD3E72E1CA5E78022130351461942AF
:1040800035D10B431D032C0B074AC7E780214B0298
:104090009B44DBE6019B00221840C7B200240026A7
:1040A000BCE7C0460DFCFFFFFF07000001FCFFFF5F
:1040B000904F0010FF030000FFFFFFFEFE0700000F
:1040C000FFFF0F80FFFF0F00041C283CA5402C1CA5
:1040D000002570E600F0A0FC203060E6283B9E4002
:1040E000B24600262DE600F097FC203019E61C426F
:1040F00006D11C432603340B5F462E1C2E4A8DE747
:104100000B431803040B2C4A88E72C4F049D7B1BA0
:10411000382B06DD019E01273740002200240026AF
:104120007CE71F2B21DC049A254F351CD119201C5C
:104130008E40DD408840321C2843561EB241061C8A
:104140001643DC400F233340042B05D0371DB74204
:10415000B641714264183E1C250217D5019B012708
:104160001F4001220024002658E71648049A211C0B
:10417000871AF9400D1C202B12D0134BD018844005
:104180002643721E96412E430024DBE7019A650701
:10419000F6086002012717402E43040B00223DE77A
:1041A0000024EDE780210F033C43019824030127FD
:1041B000240B0740004A31E7FF07000002FCFFFF25
:1041C0001E040000E2FBFFFF3E040000F0B557466E
:1041D0004E464546E0B4071C0D034E00680ACC0F5E
:1041E000790F08438446111C18035A00FD00400A49
:1041F000DF0F4B0F1843CA4BC900760D520D8A468C
:104200009A4200D1E0E001235F40B946BC4200D1B0
:10421000A8E0B71A002F00DC10E1002A12D15246A4
:10422000024300D1D4E0013F002F00D060E15146AD
:104230006F1ABD42AD4162466B42101A3D1CC31A53
:10424000371C24E0B64A964200D1E3E080210B04FB
:104250001843382F00DD23E11F2F00DD66E1202108
:10426000C91B021C53468A40FB401A4353468B40ED
:10427000191C4B1E9941031C0A43FB40AA1A6746AE
:104280009542AD41F81A6B42C31A151C371C1A022D
:1042900000D4C7E05E02710A88464246002A00D177
:1042A000F0E0404600F0B8FB021C083A1F2A00DD8F
:1042B000F1E02823181A2E1C4146C6409140331CB9
:1042C0000B439540974200DDA9E0D01B411C1F29FC
:1042D00000DD12E11F273A1A2E1C181CCE40904018
:1042E000954030436A1E9541CB400543012100278C
:1042F0000F262E40042E00D172E02E1DAE42AD419D
:10430000684280221B180125100418402C40002808
:1043100007D0834FB94200D1B0E0824A0F1C13404E
:104320000131F20849055E073243DB08480D0128D8
:1043300000DC79E01B0378051E0B470D00200021EF
:10434000090D7D050B05784F1E43101C37406A0888
:1043500017437E007108E40721431CBC9046994630
:10436000A246F0BDB31A002B00DCA6E0002A3ED026
:104370006B4A96424ED080210F043843382B00DC24
:1043800018E15346184300270022002800D00122DC
:104390005219AA42AD4167446B42FB18151C371CE9
:1043A0001E023FD55E487E1C864200D17BE15D49FE
:1043B00001222A400B406808151CD90705430D430C
:1043C0005B08B91C371C93E7014300D11BE71CE7CE
:1043D000711C371C0F2663462E40042E00D08CE73C
:1043E000802201261004344018402E1C8FE75246CC
:1043F0000243EDD0013B002B09D157467919A94260
:104400009241554260444319371C0D1CC8E744498A
:104410008E42B3D1802063460101371C68E7BF1A82
:10442000404A1340791C63E7151C1D4300D121E26B
:10443000002F3ED0802631030B437BE7002F00D0B6
:1044400086E0721C51054B0D012B00DCF0E0574655
:10445000EA1B95429B416746391A5B42C91A884656
:104460000B0200D49DE05446651BAA459241C01B37
:104470005742C31B9846371C4C460EE70F1C0026BC
:1044800000225BE7281C00F0C7FA2030021C083A23
:104490001F2A00DC0DE7283885402B1C002511E77A
:1044A0005746384300230022002800D1E6E60122C7
:1044B000E4E61D032E0B002740E7002B00D0D9E0D7
:1044C000771C79054A0D012A00DC95E0144B9F42C8
:1044D00000D1FEE051464919A942AD4162466B4206
:1044E0008018C2184908D5070D435308B11CFFE6D0
:1044F0000B498E4200D0ACE68CE7061C1F3E1F1C09
:10450000F7403E1C202973D03F22101A83401D43E0
:104510006B1E9D413543012100230027E8E6C0467C
:10452000FF070000FFFF7FFFFFFF0F803B1C203BCA
:10453000011CD9400B1C202F5CD04022D71BB84057
:10454000021C50460243511E8A411A43002395E63D
:104550007F42002E40D0CA4CA24200D11FE18021F0
:1045600066460B041E43B446382F00DDA9E01F2F1A
:1045700000DD3DE12023DE1B291C6446B440F940E8
:10458000B5406B1E9D41214363460D43FB4057469A
:104590007D1BC01AAA459B415F42C31B4C46171C9A
:1045A00075E60D1C154320D10024012100230426AB
:1045B0000027B6E61F2B4ADC2021C91A071C5246E9
:1045C0008F40DA403A4357468F40391C4F1EB9415D
:1045D000D8400A43071CDBE664462C4369D1511CD2
:1045E000031C5546171C4C4682E6151C371C54E626
:1045F00000238CE70022A4E767462F43002E00D05B
:10460000D4E0002F00D126E15346034300D1E4E07B
:1046100051464F19AF42AD4160446E4283191E02AC
:1046200000D44EE197483D1C0340022101275FE67C
:1046300061462943002E29D1002976D151460143F4
:10464000B2D0031C55464C460121002750E61F1CE2
:10465000203F011CF9400F1C202B00D1C6E0402256
:10466000D31A9840021C50460243531E9A413A43C3
:1046700000278DE65B42002E30D167462F4300D0E5
:10468000C8E0511C031C5546171C31E6002965D1B2
:104690005746074300D1C8E0031C802055464C46CE
:1046A0000101774F24E68023371C190104260023DB
:1046B00037E6013F002F6ED154466146651B401A14
:1046C00068E767463D430023002D00D15FE70125E1
:1046D0005DE7802631010023042622E668498A42EC
:1046E00000D1C1E08027664639040E43B446382B1A
:1046F00000DDA2E01F2B00DDD0E02021C91A2E1C16
:1047000067468F408D40DE403E43291C67464D1E64
:10471000A941DF40351C0D433E1C554455459B4186
:1047200030185E428319171C3AE65646064354D0A9
:104730005746EA1B63469542B641191A7342CB1A93
:104740001E0200D4A2E07D1B6446AA45BF41001BA7
:104750007A42831A4C4601210027C9E55646064392
:104760003FD0624680215707ED08D3080A033D4336
:10477000134208D0C608164205D15546EC08450735
:104780002543331C4C46680FDB0080260343ED00B5
:1047900031013B4FACE53A498A4200D0E4E680263D
:1047A000031C55464C463101171CA1E5002F4CD087
:1047B0005346034315D062468026ED085107D308BF
:1047C00037030D433B42DED0C2083A42DBD15546A7
:1047D000E9084507131C0D43D5E76346012100276F
:1047E00086E5802739016346254F81E500223AE7B7
:1047F0003C1C203C6646E640331C202F5FD0402402
:10480000E71B6646BE40311C0D43691E8D411D43AA
:104810000023BCE6013B002B22D155445545BF4146
:104820007B426044C318171CBAE58021042200248F
:104830000901154B5642124F73E563461D4300268E
:10484000002D00D169E7012567E78022031C55464A
:1048500011010B4F4CE5031C55460121002747E58C
:1048600007498A4200D042E78021031C55460901CE
:10487000171C3DE57F057F0D002600225EE5C04642
:10488000FF070000FFFF7FFFFFFF7F001D1C154398
:1048900000D189E6151C0121002729E51F1C203FB6
:1048A0006146F940202B10D04026F31A67469F40FE
:1048B0003B1C1D436B1E9D410D4300262DE700212F
:1048C000A2E73D1C0121002712E50023F1E7C046C5
:1048D000134A0B0330B5051C48001C0BC90F430DD0
:1048E0000020934211DD0F4883420FDC80225003E9
:1048F0000D4A0443D01A1F280BDD0C4DEB1ADC4087
:10490000221C5042002900D1101C30BD084C08194F
:10491000FBE7C54007482A1C1D18AC402243F0E7BE
:10492000FE0300001D040000330400001304000017
:10493000FFFFFF7FEDFBFFFF70B5041E26D000F0E8
:104940006BF814490A1A0A2813DD0B3884405605FF
:104950002403720D250B002600200021301C0E0DB3
:1049600033050D4C2B4311051C400C4365006908B1
:1049700070BD0B23051C181A1535211CC440A94015
:10498000520525030E1C2D0B520DE5E700220025D4
:104990000026E1E71E040000FFFF0F808446101C84
:1049A00062468C46191C634600E0C0461FB500F005
:1049B00003F9002801D40021C8421FBD10B500F042
:1049C00049F84042013010BD10B500F0F5F800285C
:1049D00001DB002010BD012010BDC04610B500F065
:1049E000EBF8002801DD002010BD012010BDC046FD
:1049F00010B500F06DF8002801DC002010BD01208A
:104A000010BDC04610B500F063F8002801DA0020A0
:104A100010BD012010BDC0461C2101231B0498427B
:104A200001D3000C10391B0A984201D3000A08393F
:104A30001B09984201D30009043902A2105C4018F6
:104A40007047C0460403020201010101000000009A
:104A500000000000F0B5944647461A03061C5800B3
:104A600080B4170B420D19480D034C00DB0F2D0BC2
:104A7000640DC90F9846844208D0144882420DD074
:104A80000120944212D004BC9046F0BD2B1C33434D
:104A90000120002BF7D10D488242F1D163463B4300
:104AA0000120002BEFD101209442ECD1BD42EAD18C
:104AB0006645E8D1414506D0002CE4D1281C30439E
:104AC000451EA841DFE70020DDE7C046FF070000E4
:104AD000F0B557464E464546E0B4041C4E00080368
:104AE000C90F8A46171C59001A03050B700D160BC7
:104AF0004A0D3049DB0F9C46884232D02D498A420C
:104B000035D000280FD1291C21434B424B419846F8
:104B1000002A0BD0002B1AD1E2452CD05546002D8F
:104B200018D1012018E0002AF6D19046311C3943F3
:104B30004B424B414146002906D1002BECD0564652
:104B40000120002E08D005E00020002B04D167468C
:104B5000002FE6D1012358421CBC90469946A2463C
:104B6000F0BD2B1C2343C9D002214842F4E7331C7B
:104B70003B43C6D0F8E7904205DC09DA5246002AEA
:104B8000E8D00120E8E75446002CE3D10120E3E718
:104B9000B542C3D807D00020B542DDD25046002828
:104BA000D8D00120D8E7BC42B8D80020BC42F5D309
:104BB000D2E7C046FF070000F0B544465F465646C0
:104BC0004D46F0B49446061C1A035800170B420DCC
:104BD0002E480D034C00DB0F2D0B640DC90F9846BA
:104BE000844233D02948824236D0002C19D0002A82
:104BF00020D1934663463B43584258415B46824628
:104C0000002B1DD051460020002904D14246002A25
:104C100014D1012460423CBC90469946A246AB4662
:104C2000F0BD2B1C3343584243419B46002AE1D040
:104C3000002BEBD1414515D00029EAD10120EAE74C
:104C40000028F7D001200029E5D0E2E72B1C3343F0
:104C50000220002BDFD1C5E763463B430220002B37
:104C6000D9D1C2E79442E7DC05DBBD42E4D806D0E7
:104C70000020BD42CFD20029CBD00120CBE7664532
:104C8000DAD800206645F6D3C5E7C046FF07000026
:104C900088C3FF7F01000000B0C3FF7F0100000058
:104CA00000010000010000010000010000010000FF
:104CB00001000001000100000100000100000100EE
:104CC00000010000010000010000000001000001DF
:104CD00000000100000100000100000100000100CF
:104CE00000010000010000010000010000010000BF
:104CF00001000001000001000001000001000001AE
:104D0000000001000001000001000001000001009E
:104D1000000100000100000100000100000100008E
:104D2000010000010000010000010000010000017D
:104D3000000001000001000001000001000001006E
:104D4000000100000100000100000100000100005E
:104D5000010000010000010000010000010000004E
:104D6000000001000001000001000001000001003E
:104D7000000100000100000100000100000100002E
:104D8000010000010000010000010000010000011D
:104D9000000001000001000001000001000001000E
:104DA00001010101010101010101010101010101F3
:104DB00001010101010101010101010101010101E3
:104DC00001010101010101010101010101010101D3
:104DD00001010101010101010101010101010100C4
:104DE00000000000000000000000000000000000C3
:104DF00000000000000000000000000000000000B3
:104E000000000000000000000000000000000000A2
:104E10000000000000000000000000000000000092
:104E20000001010001010001010001010001010078
:104E30000101000101000101000101000101000167
:104E40000100010100010100010100010100010157
:104E50000001010001010001010001010001010048
:104E60000100010100010100010100010100010137
:104E70000001010001010001010001010001010028
:104E80000101000101000101000101000101000117
:104E90000100010100010100010100010100010008
:104EA00001010001010001010001010001010001F7
:104EB00001000101000101000101000101000101E7
:104EC00000010100010100010100010100010100D8
:104ED00001010001010001010001010001010000C8
:104EE0009C130010881200101C130010BC1200103C
:104EF000DC120010FC1200105C1300103C130010B8
:104F00007C13001000000048000204400100000073
:104F100000020440020000000000000000C2010086
:104F2000070001010000010100000000270101004D
:104F30000900060000000000090000010A0300014A
:104F400001000000000104400101000000010440D4
:104F500014350010BE3500106636001026360010DD
:104F6000663600101E360010663600102636001019
:104F7000BE350010BE3500101E360010263600105B
:104F80008436001084360010843600106C36001011
:104F9000183E00107440001074400010484000108B
:104FA000C03F0010C03F0010684000104840001093
:104FB000C03F001068400010C03F00104840001083
:104FC0006040001060400010604000107840001009
:104FD0002C48874600000000000000000000000090
:104FE00000000000000000000000000000000000C1
:104FF000254887460000000000000000234887463F
:1050000023488746234887462348874623488746C0
:1050100023488746234887462348874623488746B0
:105020000000000000000000214887462148874614
:105030002148874621488746214887462148874698
:1050400021488746214887460000000000000000F4
:1050500000000000000000001D4887461D488746EC
:105060001D4887461D4887460000000000000000DC
:105070000000000000000000000000000000000030
:105080000000000047140010491400104B140010D9
:10509000DD2600104F14001051140010531400109E
:1050A0005514001057140010591400105B14001010
:1050B000A1110010411200106D1400106F140010A7
:1050C00071140010731400105D1400105F140010B0
:1050D00061140010631400106514001067140010B0
:0C50E000044F0010384F00103C4F00102F
:0400000510001019BE
:00000001FF
